{
  "contractName": "UpDown",
  "abi": [
    {
      "inputs": [],
      "stateMutability": "nonpayable",
      "type": "constructor"
    },
    {
      "anonymous": false,
      "inputs": [
        {
          "indexed": true,
          "internalType": "address",
          "name": "beneficiary",
          "type": "address"
        },
        {
          "indexed": false,
          "internalType": "uint256",
          "name": "amount",
          "type": "uint256"
        }
      ],
      "name": "FailedPayment",
      "type": "event"
    },
    {
      "anonymous": false,
      "inputs": [
        {
          "indexed": false,
          "internalType": "uint8",
          "name": "number",
          "type": "uint8"
        }
      ],
      "name": "Number",
      "type": "event"
    },
    {
      "anonymous": false,
      "inputs": [
        {
          "indexed": false,
          "internalType": "address",
          "name": "account",
          "type": "address"
        }
      ],
      "name": "Paused",
      "type": "event"
    },
    {
      "anonymous": false,
      "inputs": [
        {
          "indexed": true,
          "internalType": "address",
          "name": "beneficiary",
          "type": "address"
        },
        {
          "indexed": false,
          "internalType": "uint256",
          "name": "amount",
          "type": "uint256"
        }
      ],
      "name": "Payment",
      "type": "event"
    },
    {
      "anonymous": false,
      "inputs": [
        {
          "indexed": true,
          "internalType": "address",
          "name": "beneficiary",
          "type": "address"
        },
        {
          "indexed": false,
          "internalType": "uint256",
          "name": "amount",
          "type": "uint256"
        }
      ],
      "name": "ReferralPayment",
      "type": "event"
    },
    {
      "anonymous": false,
      "inputs": [
        {
          "indexed": false,
          "internalType": "uint256",
          "name": "rewardAmt",
          "type": "uint256"
        },
        {
          "indexed": false,
          "internalType": "uint256",
          "name": "treasuryCollections",
          "type": "uint256"
        }
      ],
      "name": "RewardCalculated",
      "type": "event"
    },
    {
      "anonymous": false,
      "inputs": [
        {
          "indexed": false,
          "internalType": "uint256",
          "name": "id",
          "type": "uint256"
        },
        {
          "indexed": false,
          "internalType": "uint256",
          "name": "epoch",
          "type": "uint256"
        },
        {
          "indexed": false,
          "internalType": "uint256",
          "name": "prevRoundIdForUser",
          "type": "uint256"
        },
        {
          "indexed": false,
          "internalType": "address",
          "name": "user",
          "type": "address"
        },
        {
          "indexed": false,
          "internalType": "uint256",
          "name": "betAmt",
          "type": "uint256"
        },
        {
          "indexed": false,
          "internalType": "uint8",
          "name": "betMask",
          "type": "uint8"
        },
        {
          "indexed": false,
          "internalType": "uint8",
          "name": "winningNumber",
          "type": "uint8"
        }
      ],
      "name": "Rounds",
      "type": "event"
    },
    {
      "anonymous": false,
      "inputs": [
        {
          "indexed": false,
          "internalType": "address",
          "name": "account",
          "type": "address"
        }
      ],
      "name": "Unpaused",
      "type": "event"
    },
    {
      "inputs": [],
      "name": "MAX_BET_MASK",
      "outputs": [
        {
          "internalType": "uint256",
          "name": "",
          "type": "uint256"
        }
      ],
      "stateMutability": "view",
      "type": "function",
      "constant": true
    },
    {
      "inputs": [],
      "name": "currentRoundId",
      "outputs": [
        {
          "internalType": "uint256",
          "name": "",
          "type": "uint256"
        }
      ],
      "stateMutability": "view",
      "type": "function",
      "constant": true
    },
    {
      "inputs": [],
      "name": "currentTreasuryCollection",
      "outputs": [
        {
          "internalType": "uint256",
          "name": "",
          "type": "uint256"
        }
      ],
      "stateMutability": "view",
      "type": "function",
      "constant": true
    },
    {
      "inputs": [
        {
          "internalType": "address",
          "name": "",
          "type": "address"
        }
      ],
      "name": "currentUserEpoch",
      "outputs": [
        {
          "internalType": "uint256",
          "name": "",
          "type": "uint256"
        }
      ],
      "stateMutability": "view",
      "type": "function",
      "constant": true
    },
    {
      "inputs": [],
      "name": "maxBetAmount",
      "outputs": [
        {
          "internalType": "uint256",
          "name": "",
          "type": "uint256"
        }
      ],
      "stateMutability": "view",
      "type": "function",
      "constant": true
    },
    {
      "inputs": [],
      "name": "minBetAmount",
      "outputs": [
        {
          "internalType": "uint256",
          "name": "",
          "type": "uint256"
        }
      ],
      "stateMutability": "view",
      "type": "function",
      "constant": true
    },
    {
      "inputs": [],
      "name": "owner",
      "outputs": [
        {
          "internalType": "address payable",
          "name": "",
          "type": "address"
        }
      ],
      "stateMutability": "view",
      "type": "function",
      "constant": true
    },
    {
      "inputs": [],
      "name": "paused",
      "outputs": [
        {
          "internalType": "bool",
          "name": "",
          "type": "bool"
        }
      ],
      "stateMutability": "view",
      "type": "function",
      "constant": true
    },
    {
      "inputs": [],
      "name": "randomRoundId",
      "outputs": [
        {
          "internalType": "uint256",
          "name": "",
          "type": "uint256"
        }
      ],
      "stateMutability": "view",
      "type": "function",
      "constant": true
    },
    {
      "inputs": [
        {
          "internalType": "uint256",
          "name": "",
          "type": "uint256"
        }
      ],
      "name": "roundDetailsById",
      "outputs": [
        {
          "internalType": "address",
          "name": "user",
          "type": "address"
        },
        {
          "internalType": "uint256",
          "name": "epoch",
          "type": "uint256"
        }
      ],
      "stateMutability": "view",
      "type": "function",
      "constant": true
    },
    {
      "inputs": [
        {
          "internalType": "address",
          "name": "",
          "type": "address"
        },
        {
          "internalType": "uint256",
          "name": "",
          "type": "uint256"
        }
      ],
      "name": "rounds",
      "outputs": [
        {
          "internalType": "uint256",
          "name": "id",
          "type": "uint256"
        },
        {
          "internalType": "uint256",
          "name": "epoch",
          "type": "uint256"
        },
        {
          "internalType": "uint256",
          "name": "startTime",
          "type": "uint256"
        },
        {
          "internalType": "uint256",
          "name": "totalBetAmount",
          "type": "uint256"
        },
        {
          "internalType": "uint256",
          "name": "totalRewardAmount",
          "type": "uint256"
        },
        {
          "internalType": "uint256",
          "name": "totalTreasuryCollections",
          "type": "uint256"
        },
        {
          "internalType": "address",
          "name": "user",
          "type": "address"
        },
        {
          "internalType": "uint8",
          "name": "betMask",
          "type": "uint8"
        },
        {
          "internalType": "uint8",
          "name": "winningNumber",
          "type": "uint8"
        }
      ],
      "stateMutability": "view",
      "type": "function",
      "constant": true
    },
    {
      "stateMutability": "payable",
      "type": "receive",
      "payable": true
    },
    {
      "inputs": [
        {
          "internalType": "address payable",
          "name": "_owner",
          "type": "address"
        }
      ],
      "name": "changeOwner",
      "outputs": [],
      "stateMutability": "nonpayable",
      "type": "function"
    },
    {
      "inputs": [
        {
          "internalType": "address",
          "name": "_randomGenerator",
          "type": "address"
        }
      ],
      "name": "setRandomGenerator",
      "outputs": [],
      "stateMutability": "nonpayable",
      "type": "function"
    },
    {
      "inputs": [
        {
          "internalType": "address",
          "name": "_token",
          "type": "address"
        }
      ],
      "name": "setTokenToBet",
      "outputs": [],
      "stateMutability": "nonpayable",
      "type": "function"
    },
    {
      "inputs": [
        {
          "internalType": "uint256",
          "name": "_minBetAmt",
          "type": "uint256"
        }
      ],
      "name": "setMinBetAmount",
      "outputs": [],
      "stateMutability": "nonpayable",
      "type": "function"
    },
    {
      "inputs": [
        {
          "internalType": "uint256",
          "name": "_maxBetAmt",
          "type": "uint256"
        }
      ],
      "name": "setMaxBetAmount",
      "outputs": [],
      "stateMutability": "nonpayable",
      "type": "function"
    },
    {
      "inputs": [],
      "name": "getTokenAdd",
      "outputs": [
        {
          "internalType": "address",
          "name": "",
          "type": "address"
        }
      ],
      "stateMutability": "view",
      "type": "function",
      "constant": true
    },
    {
      "inputs": [],
      "name": "getRandomGeneratorAdd",
      "outputs": [
        {
          "internalType": "address",
          "name": "",
          "type": "address"
        }
      ],
      "stateMutability": "view",
      "type": "function",
      "constant": true
    },
    {
      "inputs": [],
      "name": "pause",
      "outputs": [],
      "stateMutability": "nonpayable",
      "type": "function"
    },
    {
      "inputs": [],
      "name": "unpause",
      "outputs": [],
      "stateMutability": "nonpayable",
      "type": "function"
    },
    {
      "inputs": [
        {
          "internalType": "address payable",
          "name": "beneficiary",
          "type": "address"
        },
        {
          "internalType": "uint256",
          "name": "withdrawAmount",
          "type": "uint256"
        }
      ],
      "name": "withdrawFunds",
      "outputs": [],
      "stateMutability": "nonpayable",
      "type": "function"
    },
    {
      "inputs": [],
      "name": "collectTreasury",
      "outputs": [],
      "stateMutability": "nonpayable",
      "type": "function"
    },
    {
      "inputs": [
        {
          "internalType": "uint8",
          "name": "betMask",
          "type": "uint8"
        },
        {
          "internalType": "uint256",
          "name": "amount",
          "type": "uint256"
        }
      ],
      "name": "placeBet",
      "outputs": [],
      "stateMutability": "nonpayable",
      "type": "function"
    },
    {
      "inputs": [
        {
          "internalType": "address",
          "name": "_token",
          "type": "address"
        }
      ],
      "name": "withdrawAllTokens",
      "outputs": [],
      "stateMutability": "nonpayable",
      "type": "function"
    },
    {
      "inputs": [
        {
          "internalType": "address",
          "name": "_token",
          "type": "address"
        },
        {
          "internalType": "uint256",
          "name": "amount",
          "type": "uint256"
        }
      ],
      "name": "withdrawToken",
      "outputs": [],
      "stateMutability": "nonpayable",
      "type": "function"
    },
    {
      "inputs": [],
      "name": "withdrawAllNative",
      "outputs": [],
      "stateMutability": "nonpayable",
      "type": "function"
    },
    {
      "inputs": [
        {
          "internalType": "uint256",
          "name": "amount",
          "type": "uint256"
        }
      ],
      "name": "withdrawNative",
      "outputs": [],
      "stateMutability": "nonpayable",
      "type": "function"
    }
  ],
  "bytecode": "0x6080604052600060055567016345785d8a0000600a55683635c9adc5dea00000600b556000600c5534801561003357600080fd5b5060016000819055805460ff19169055600980546001600160a01b0319908116331790915560078054821673ce746f6e5e99d9ee3457d1dce5f69f4e27c12bd41790556006805490911673e5e59a851406a2b61b4c3142c89f3e12623340e1179055611cf8806100a46000396000f3fe6080604052600436106101a05760003560e01c80638a17edfa116100ec578063b59c46fb1161008a578063cab11d5d11610064578063cab11d5d14610567578063dcb3b30e1461057d578063ef1041201461059d578063fa968eea146105b357600080fd5b8063b59c46fb14610460578063bb9744ce14610532578063c10753291461054757600080fd5b80639cddc965116100c65780639cddc965146103e05780639e281a9814610400578063a6f9dae114610420578063a878aee61461044057600080fd5b80638a17edfa1461037d5780638da5cb5b146103aa5780639cbe5efd146103ca57600080fd5b80635c975abb116101595780637cfbc7a5116101335780637cfbc7a51461030a57806384276d811461032a5780638456cb591461034a5780638598237e1461035f57600080fd5b80635c975abb1461026857806368fab9a01461028b5780636c188593146102ea57600080fd5b806325204cd9146101ac5780632da721ed146101d45780633f4ba83a14610206578063482fe0241461021d5780634bc19fee1461023257806351d537321461025257600080fd5b366101a757005b600080fd5b3480156101b857600080fd5b506101c1605081565b6040519081526020015b60405180910390f35b3480156101e057600080fd5b506007546001600160a01b03165b6040516001600160a01b0390911681526020016101cb565b34801561021257600080fd5b5061021b6105c9565b005b34801561022957600080fd5b5061021b610606565b34801561023e57600080fd5b5061021b61024d366004611a77565b61063d565b34801561025e57600080fd5b506101c160085481565b34801561027457600080fd5b5060015460ff1660405190151581526020016101cb565b34801561029757600080fd5b506102cb6102a6366004611ae2565b600360205260009081526040902080546001909101546001600160a01b039091169082565b604080516001600160a01b0390931683526020830191909152016101cb565b3480156102f657600080fd5b5061021b610305366004611ae2565b610689565b34801561031657600080fd5b5061021b610325366004611ae2565b6106b8565b34801561033657600080fd5b5061021b610345366004611ae2565b6106e7565b34801561035657600080fd5b5061021b61081f565b34801561036b57600080fd5b506006546001600160a01b03166101ee565b34801561038957600080fd5b506101c1610398366004611a77565b60046020526000908152604090205481565b3480156103b657600080fd5b506009546101ee906001600160a01b031681565b3480156103d657600080fd5b506101c160055481565b3480156103ec57600080fd5b5061021b6103fb366004611a77565b610851565b34801561040c57600080fd5b5061021b61041b366004611a94565b61089d565b34801561042c57600080fd5b5061021b61043b366004611a77565b6109bb565b34801561044c57600080fd5b5061021b61045b366004611a77565b610a07565b34801561046c57600080fd5b506104df61047b366004611a94565b6002602081815260009384526040808520909152918352912080546001820154928201546003830154600484015460058501546006909501549395949293919290916001600160a01b0381169060ff600160a01b8204811691600160a81b90041689565b60408051998a5260208a0198909852968801959095526060870193909352608086019190915260a08501526001600160a01b031660c084015260ff90811660e084015216610100820152610120016101cb565b34801561053e57600080fd5b5061021b610abb565b34801561055357600080fd5b5061021b610562366004611a94565b610b04565b34801561057357600080fd5b506101c1600b5481565b34801561058957600080fd5b5061021b610598366004611b42565b610c02565b3480156105a957600080fd5b506101c1600c5481565b3480156105bf57600080fd5b506101c1600a5481565b6009546001600160a01b031633146105fc5760405162461bcd60e51b81526004016105f390611bb5565b60405180910390fd5b610604611352565b565b6009546001600160a01b031633146106305760405162461bcd60e51b81526004016105f390611bb5565b4761063a816106e7565b50565b6009546001600160a01b031633146106675760405162461bcd60e51b81526004016105f390611bb5565b600680546001600160a01b0319166001600160a01b0392909216919091179055565b6009546001600160a01b031633146106b35760405162461bcd60e51b81526004016105f390611bb5565b600a55565b6009546001600160a01b031633146106e25760405162461bcd60e51b81526004016105f390611bb5565b600b55565b6009546001600160a01b031633146107115760405162461bcd60e51b81526004016105f390611bb5565b47818110156107775760405162461bcd60e51b815260206004820152602c60248201527f62616c616e616365206f66206e617469766520746f6b656e20696e20636f6e7460448201526b7261637420746f6f206c6f7760a01b60648201526084016105f3565b6009546040516000916001600160a01b03169084908381818185875af1925050503d80600081146107c4576040519150601f19603f3d011682016040523d82523d6000602084013e6107c9565b606091505b505090508061081a5760405162461bcd60e51b815260206004820181905260248201527f4661696c75726520696e206e617469766520746f6b656e207472616e7366657260448201526064016105f3565b505050565b6009546001600160a01b031633146108495760405162461bcd60e51b81526004016105f390611bb5565b6106046113e5565b6009546001600160a01b0316331461087b5760405162461bcd60e51b81526004016105f390611bb5565b600780546001600160a01b0319166001600160a01b0392909216919091179055565b6009546001600160a01b031633146108c75760405162461bcd60e51b81526004016105f390611bb5565b6040516370a0823160e01b81523060048201526000906001600160a01b038416906370a082319060240160206040518083038186803b15801561090957600080fd5b505afa15801561091d573d6000803e3d6000fd5b505050506040513d601f19601f820116820180604052508101906109419190611afb565b9050818110156109a15760405162461bcd60e51b815260206004820152602560248201527f62616c616e616365206f6620746f6b656e20696e20636f6e747261637420746f6044820152646f206c6f7760d81b60648201526084016105f3565b60095461081a906001600160a01b0385811691168461145e565b6009546001600160a01b031633146109e55760405162461bcd60e51b81526004016105f390611bb5565b600980546001600160a01b0319166001600160a01b0392909216919091179055565b6009546001600160a01b03163314610a315760405162461bcd60e51b81526004016105f390611bb5565b6040516370a0823160e01b81523060048201526000906001600160a01b038316906370a082319060240160206040518083038186803b158015610a7357600080fd5b505afa158015610a87573d6000803e3d6000fd5b505050506040513d601f19601f82011682018060405250810190610aab9190611afb565b9050610ab7828261089d565b5050565b6009546001600160a01b03163314610ae55760405162461bcd60e51b81526004016105f390611bb5565b600c8054600090915560095461063a906001600160a01b0316826114c1565b6009546001600160a01b03163314610b2e5760405162461bcd60e51b81526004016105f390611bb5565b6007546040516370a0823160e01b81523060048201526001600160a01b03909116906370a082319060240160206040518083038186803b158015610b7157600080fd5b505afa158015610b85573d6000803e3d6000fd5b505050506040513d601f19601f82011682018060405250810190610ba99190611afb565b811115610bf85760405162461bcd60e51b815260206004820152601b60248201527f616d6f756e74206c6172676572207468616e2062616c616e63652e000000000060448201526064016105f3565b610ab782826114c1565b60026000541415610c555760405162461bcd60e51b815260206004820152601f60248201527f5265656e7472616e637947756172643a207265656e7472616e742063616c6c0060448201526064016105f3565b600260005560015460ff1615610ca05760405162461bcd60e51b815260206004820152601060248201526f14185d5cd8589b194e881c185d5cd95960821b60448201526064016105f3565b60008260ff16118015610cb6575060508260ff16105b610d025760405162461bcd60e51b815260206004820152601c60248201527f4d61736b2073686f756c642062652077697468696e2072616e67652e0000000060448201526064016105f3565b333214610d0e57600080fd5b600a54811015610d705760405162461bcd60e51b815260206004820152602760248201527f616d6f756e7420736d616c6c6572207468616e206d696e696d756d206265742060448201526630b6b7bab73a1760c91b60648201526084016105f3565b600b54811115610dd25760405162461bcd60e51b815260206004820152602760248201527f616d6f756e742067726561746572207468616e206d6178696d756d206265742060448201526630b6b7bab73a1760c91b60648201526084016105f3565b6007546040516370a0823160e01b81523360048201526001600160a01b03909116906370a082319060240160206040518083038186803b158015610e1557600080fd5b505afa158015610e29573d6000803e3d6000fd5b505050506040513d601f19601f82011682018060405250810190610e4d9190611afb565b811115610e9c5760405162461bcd60e51b815260206004820152601b60248201527f616d6f756e74206c6172676572207468616e2062616c616e63652e000000000060448201526064016105f3565b600754610eb4906001600160a01b0316333084611561565b600654604051639bbf750160e01b81526065600482015260009182916001600160a01b0390911690639bbf750190602401606060405180830381600087803b158015610eff57600080fd5b505af1158015610f13573d6000803e3d6000fd5b505050506040513d601f19601f82011682018060405250810190610f379190611b14565b50915091506008548211610fa25760405162461bcd60e51b815260206004820152602c60248201527f526f756e6449642073686f756c642062652067726561746572207468616e207260448201526b185b991bdb549bdd5b99125960a21b60648201526084016105f3565b600882905560405160ff821681527f0f64abd31fd9a17efc95c4556df546d8798c94364fa22e529bfd36facad4d2429060200160405180910390a1600554610feb906001611bfb565b60055533600090815260046020526040902054611009906001611bfb565b60046000336001600160a01b03166001600160a01b03168152602001908152602001600020819055506040518060400160405280336001600160a01b0316815260200160046000336001600160a01b03166001600160a01b031681526020019081526020016000205481525060036000600554815260200190815260200160002060008201518160000160006101000a8154816001600160a01b0302191690836001600160a01b0316021790555060208201518160010155905050604051806101200160405280600554815260200160046000336001600160a01b03166001600160a01b031681526020019081526020016000205481526020014281526020018481526020016000815260200160008152602001336001600160a01b031681526020018560ff1681526020018260ff1681525060026000336001600160a01b03166001600160a01b03168152602001908152602001600020600060046000336001600160a01b03166001600160a01b03168152602001908152602001600020548152602001908152602001600020600082015181600001556020820151816001015560408201518160020155606082015181600301556080820151816004015560a0820151816005015560c08201518160060160006101000a8154816001600160a01b0302191690836001600160a01b0316021790555060e08201518160060160146101000a81548160ff021916908360ff1602179055506101008201518160060160156101000a81548160ff021916908360ff1602179055509050506000600160046000336001600160a01b03166001600160a01b031681526020019081526020016000205411156112b457336000908152600260209081526040808320600490925282205490919061129f90600190611c54565b81526020019081526020016000206000015490505b60006112c4858760ff168561159f565b905080156112d6576112d633826114c1565b6005543360008181526004602090815260409182902054825194855290840152820184905260608201526080810186905260ff80881660a0830152841660c08201527fc52f44a5ca30ed7e81e3988d8b9c1d4092a41e6b0d50aa112bda4ad3a61c34539060e00160405180910390a15050600160005550505050565b60015460ff1661139b5760405162461bcd60e51b815260206004820152601460248201527314185d5cd8589b194e881b9bdd081c185d5cd95960621b60448201526064016105f3565b6001805460ff191690557f5db9ee0a495bf2e6ff9c91a7834c1ba4fdd244a5e8aa4e537bd38aeae4b073aa335b6040516001600160a01b03909116815260200160405180910390a1565b60015460ff161561142b5760405162461bcd60e51b815260206004820152601060248201526f14185d5cd8589b194e881c185d5cd95960821b60448201526064016105f3565b6001805460ff1916811790557f62e78cea01bee320cd4e420270b5ea74000d11b0c9f74754ebdbfc544b05a258336113c8565b6040516001600160a01b03831660248201526044810182905261081a90849063a9059cbb60e01b906064015b60408051601f198184030181529190526020810180516001600160e01b03166001600160e01b031990931692909217909152611824565b8015611525576007546114de906001600160a01b0316838361145e565b816001600160a01b03167fd4f43975feb89f48dd30cabbb32011045be187d1e11c8ea9faa43efc352825198260405161151991815260200190565b60405180910390a25050565b816001600160a01b03167fd4f43975feb89f48dd30cabbb32011045be187d1e11c8ea9faa43efc35282519600060405161151991815260200190565b6040516001600160a01b03808516602483015283166044820152606481018290526115999085906323b872dd60e01b9060840161148a565b50505050565b600080831180156115b1575060648311155b6115fd5760405162461bcd60e51b815260206004820152601d60248201527f57696e2070726f626162696c697479206f7574206f662072616e67652e00000060448201526064016105f3565b828260ff16101561176d57336000908152600260209081526040808320600483528184205484529091528120906103e8611638600f88611c35565b6116429190611c13565b9050660110d9316ec00081101561165d5750660110d9316ec0005b858111156116b85760405162461bcd60e51b815260206004820152602260248201527f42657420646f65736e2774206576656e20636f76657220686f75736520656467604482015261329760f11b60648201526084016105f3565b600081866116c7896064611c35565b6116d19190611c13565b6116db9190611c54565b9050818360050160008282546116f19190611bfb565b925050819055508083600401600082825461170c9190611bfb565b9250508190555081600c60008282546117259190611bfb565b909155505060408051828152602081018490527fbba7b63c89d48a8a6150ab9892dddea2c3d7682162678aeee111f026ab0a3d8f910160405180910390a1925061181d915050565b336000908152600260209081526040808320600483528184205484529091528120600581018054919287926117a3908490611bfb565b9250508190555060008160040160008282546117bf9190611bfb565b9250508190555084600c60008282546117d89190611bfb565b90915550506040805160008152602081018790527fbba7b63c89d48a8a6150ab9892dddea2c3d7682162678aeee111f026ab0a3d8f910160405180910390a160009150505b9392505050565b6000611879826040518060400160405280602081526020017f5361666545524332303a206c6f772d6c6576656c2063616c6c206661696c6564815250856001600160a01b03166118f69092919063ffffffff16565b80519091501561081a57808060200190518101906118979190611ac0565b61081a5760405162461bcd60e51b815260206004820152602a60248201527f5361666545524332303a204552433230206f7065726174696f6e20646964206e6044820152691bdd081cdd58d8d9595960b21b60648201526084016105f3565b6060611905848460008561190d565b949350505050565b60608247101561196e5760405162461bcd60e51b815260206004820152602660248201527f416464726573733a20696e73756666696369656e742062616c616e636520666f6044820152651c8818d85b1b60d21b60648201526084016105f3565b6001600160a01b0385163b6119c55760405162461bcd60e51b815260206004820152601d60248201527f416464726573733a2063616c6c20746f206e6f6e2d636f6e747261637400000060448201526064016105f3565b600080866001600160a01b031685876040516119e19190611b66565b60006040518083038185875af1925050503d8060008114611a1e576040519150601f19603f3d011682016040523d82523d6000602084013e611a23565b606091505b5091509150611a33828286611a3e565b979650505050505050565b60608315611a4d57508161181d565b825115611a5d5782518084602001fd5b8160405162461bcd60e51b81526004016105f39190611b82565b600060208284031215611a8957600080fd5b813561181d81611cad565b60008060408385031215611aa757600080fd5b8235611ab281611cad565b946020939093013593505050565b600060208284031215611ad257600080fd5b8151801515811461181d57600080fd5b600060208284031215611af457600080fd5b5035919050565b600060208284031215611b0d57600080fd5b5051919050565b600080600060608486031215611b2957600080fd5b8351925060208401519150604084015190509250925092565b60008060408385031215611b5557600080fd5b823560ff81168114611ab257600080fd5b60008251611b78818460208701611c6b565b9190910192915050565b6020815260008251806020840152611ba1816040850160208701611c6b565b601f01601f19169190910160400192915050565b60208082526026908201527f4f6e6c794f776e6572206d6574686f64732063616c6c6564206279206e6f6e2d60408201526537bbb732b91760d11b606082015260800190565b60008219821115611c0e57611c0e611c97565b500190565b600082611c3057634e487b7160e01b600052601260045260246000fd5b500490565b6000816000190483118215151615611c4f57611c4f611c97565b500290565b600082821015611c6657611c66611c97565b500390565b60005b83811015611c86578181015183820152602001611c6e565b838111156115995750506000910152565b634e487b7160e01b600052601160045260246000fd5b6001600160a01b038116811461063a57600080fdfea26469706673582212204a2ecf68161aedf79d1b2b326340718545430762dbc721f951e9570819ee31e764736f6c63430008060033",
  "immutableReferences": {},
  "source": "//SPDX-License-Identifier: MIT\r\npragma solidity ^0.8.0;\r\nimport \"./IRandomGenerator.sol\";\r\nimport \"@openzeppelin/contracts/token/ERC20/utils/SafeERC20.sol\";\r\nimport \"@openzeppelin/contracts/security/ReentrancyGuard.sol\";\r\nimport \"@openzeppelin/contracts/security/Pausable.sol\";\r\n\r\ncontract UpDown is ReentrancyGuard, Pausable{\r\n    using SafeERC20 for IERC20;\r\n    /// *** Constants section\r\n\r\n    struct Round {\r\n        uint256 id;\r\n        uint256 epoch;\r\n        uint256 startTime;\r\n        uint256 totalBetAmount;\r\n        uint256 totalRewardAmount;\r\n        uint256 totalTreasuryCollections;\r\n        address user;\r\n        uint8 betMask;\r\n        uint8 winningNumber;\r\n    }\r\n\r\n    struct RoundDetailsById{\r\n        address user;\r\n        uint256 epoch;\r\n    }\r\n\r\n    // user + epoch => Round\r\n    mapping(address => mapping(uint256 => Round)) public rounds;\r\n\r\n    // id => Epoch + User\r\n    mapping(uint256 => RoundDetailsById) public roundDetailsById;\r\n    mapping(address => uint256) public currentUserEpoch;\r\n    uint256 public currentRoundId = 0;\r\n    // Each bet is deducted 1.5% in favour of the house, but no less than some minimum.\r\n    // The lower bound is dictated by gas costs of the settleBet transaction, providing\r\n    // headroom for up to 10 Gwei prices.\r\n    uint256 constant HOUSE_EDGE_THOUSANDTHS = 15;\r\n    uint256 constant HOUSE_EDGE_MINIMUM_AMOUNT = 0.0003 ether;\r\n    uint256 constant MAX_MODULO = 100;\r\n    uint256 constant public MAX_BET_MASK = 80;\r\n    IRandomGenerator randomGenerator;\r\n    IERC20 token;\r\n    uint256 public randomRoundId;\r\n    // Standard contract ownership transfer.\r\n    address payable public owner;\r\n    uint256 public minBetAmount = 1 * 10 ** 17;\r\n    uint256 public maxBetAmount = 1000 * 10 ** 18;\r\n    uint256 public currentTreasuryCollection = 0;\r\n\r\n    // Events that are issued to make statistic recovery easier.\r\n    event FailedPayment(address indexed beneficiary, uint256 amount);\r\n    event Payment(address indexed beneficiary, uint256 amount);\r\n    event ReferralPayment(address indexed beneficiary, uint256 amount);\r\n    event Number(uint8 number);\r\n    event Rounds(\r\n        uint256 id,\r\n        uint256 epoch,\r\n        uint256 prevRoundIdForUser,\r\n        address user,\r\n        uint256 betAmt,\r\n        uint8 betMask,\r\n        uint8 winningNumber\r\n    );\r\n    event RewardCalculated(\r\n        uint256 rewardAmt,\r\n        uint256 treasuryCollections\r\n    );\r\n\r\n    // Constructor. Deliberately does not take any parameters.\r\n    constructor() {\r\n        owner = payable(msg.sender);\r\n        token = IERC20(0xce746F6E5E99d9EE3457d1dcE5F69F4E27c12BD4);\r\n        randomGenerator = IRandomGenerator(0xe5e59A851406A2B61B4C3142c89F3E12623340E1);\r\n    }\r\n\r\n \r\n\r\n    // Standard modifier on methods invokable only by contract owner.\r\n    modifier onlyOwner() {\r\n        require(msg.sender == owner, \"OnlyOwner methods called by non-owner.\");\r\n        _;\r\n    }\r\n\r\n    function changeOwner(address payable _owner) external onlyOwner() {\r\n        owner = _owner;\r\n    }\r\n\r\n    function setRandomGenerator(address _randomGenerator) external onlyOwner{\r\n        randomGenerator = IRandomGenerator(_randomGenerator);\r\n    }\r\n\r\n\r\n    function setTokenToBet(address _token) external onlyOwner{\r\n        token = IERC20(_token);\r\n    }\r\n\r\n    function setMinBetAmount(uint256 _minBetAmt) external onlyOwner{\r\n        minBetAmount = _minBetAmt;\r\n    }\r\n\r\n    function setMaxBetAmount(uint256 _maxBetAmt) external onlyOwner{\r\n        maxBetAmount = _maxBetAmt;\r\n    }\r\n\r\n    function getTokenAdd() external view returns(address){\r\n        return address(token);\r\n    }\r\n\r\n    function getRandomGeneratorAdd() external view returns(address){\r\n        return address(randomGenerator);\r\n    }\r\n\r\n    function pause() external onlyOwner{\r\n        _pause();\r\n    }\r\n\r\n    function unpause() external onlyOwner{\r\n        _unpause();\r\n    }\r\n\r\n\r\n    receive() external payable {}\r\n\r\n    \r\n    // Funds withdrawal to cover costs of dice2.win operation.\r\n    function withdrawFunds(\r\n        address payable beneficiary, \r\n        uint256 withdrawAmount\r\n        )\r\n        external\r\n        onlyOwner()\r\n    {\r\n        require(\r\n            withdrawAmount <= token.balanceOf(address(this)),\r\n            \"amount larger than balance.\"\r\n        );\r\n        sendFunds(beneficiary, withdrawAmount);\r\n    }\r\n\r\n    function collectTreasury() external onlyOwner{\r\n        uint256 treasuryCollections = currentTreasuryCollection;\r\n        currentTreasuryCollection = 0;\r\n        sendFunds(owner, treasuryCollections);\r\n    }\r\n\r\n    // Bet placing transaction - issued by the player.\r\n    //  betMask         - bet outcomes bit mask for modulo <= MAX_MASK_MODULO,\r\n    //                    [0, betMask) for larger modulos.\r\n    //  modulo          - game modulo.\r\n    function placeBet(\r\n        uint8 betMask,\r\n        uint256 amount\r\n    ) external nonReentrant whenNotPaused{\r\n\r\n        require(\r\n            betMask > 0 && betMask < MAX_BET_MASK,\r\n            \"Mask should be within range.\"\r\n        );\r\n\r\n        require(msg.sender == tx.origin);\r\n\r\n        require(\r\n            amount >= minBetAmount,\r\n            \"amount smaller than minimum bet amount.\"\r\n        );\r\n        require(\r\n            amount <= maxBetAmount,\r\n            \"amount greater than maximum bet amount.\"\r\n        );\r\n\r\n        require(\r\n            amount <= token.balanceOf(msg.sender),\r\n            \"amount larger than balance.\"\r\n        );\r\n        \r\n        // Validate input data ranges.\r\n        token.safeTransferFrom(msg.sender, address(this), amount);\r\n\r\n        (uint256 roundId, uint256 diceNum,) =\r\n            randomGenerator.latestRoundData(101);\r\n        \r\n        require(\r\n            roundId > randomRoundId, \r\n            \"RoundId should be greater than randomRoundId\"\r\n            );\r\n\r\n        randomRoundId = roundId;\r\n\r\n        emit Number(uint8(diceNum));\r\n\r\n\r\n        currentRoundId = currentRoundId + 1;\r\n        currentUserEpoch[msg.sender] = currentUserEpoch[msg.sender] + 1;\r\n        \r\n        roundDetailsById[currentRoundId] = RoundDetailsById(\r\n            msg.sender, \r\n            currentUserEpoch[msg.sender]\r\n            );\r\n\r\n        rounds[msg.sender][currentUserEpoch[msg.sender]] = Round(\r\n            currentRoundId,\r\n            currentUserEpoch[msg.sender],\r\n            block.timestamp,\r\n            amount,\r\n            0,\r\n            0,\r\n            msg.sender,\r\n            betMask,\r\n            uint8(diceNum)\r\n        );\r\n\r\n        uint256 prevRoundIdForUser = 0;\r\n        if(currentUserEpoch[msg.sender] > 1){\r\n            prevRoundIdForUser = rounds[msg.sender][currentUserEpoch[msg.sender] - 1].id;\r\n        }\r\n\r\n\r\n        uint256 diceWinAmount = getDiceWinAmount(amount, betMask, uint8(diceNum));\r\n\r\n        // Send the funds to gambler.\r\n        if(diceWinAmount != 0){\r\n            sendFunds(msg.sender, diceWinAmount);\r\n        }\r\n\r\n        emit Rounds(\r\n            currentRoundId, \r\n            currentUserEpoch[msg.sender], \r\n            prevRoundIdForUser, \r\n            msg.sender, \r\n            amount, \r\n            betMask, \r\n            uint8(diceNum)\r\n            );\r\n    }\r\n\r\n    // Get the expected win amount after house edge is subtracted.\r\n    function getDiceWinAmount(\r\n        uint256 amount,\r\n        uint256 rollUnder,\r\n        uint8 diceNum\r\n    ) private returns (uint256) {\r\n        require(\r\n            rollUnder > 0 && rollUnder <= 100,\r\n            \"Win probability out of range.\"\r\n        );\r\n\r\n        if(diceNum < rollUnder){\r\n            Round storage round = rounds[msg.sender][currentUserEpoch[msg.sender]];\r\n            uint256 houseEdge = (amount * HOUSE_EDGE_THOUSANDTHS) / 1000;\r\n            if (houseEdge < HOUSE_EDGE_MINIMUM_AMOUNT) {\r\n                houseEdge = HOUSE_EDGE_MINIMUM_AMOUNT;\r\n            }\r\n            require(houseEdge <= amount, \"Bet doesn't even cover house edge.\");\r\n            uint256 winAmount = (amount  * 100) / rollUnder - houseEdge;\r\n\r\n            round.totalTreasuryCollections += houseEdge;\r\n            round.totalRewardAmount += winAmount;\r\n            currentTreasuryCollection += houseEdge;\r\n            emit RewardCalculated(winAmount, houseEdge);\r\n            return winAmount;    \r\n        }\r\n        else {\r\n            Round storage round = rounds[msg.sender][currentUserEpoch[msg.sender]];\r\n            round.totalTreasuryCollections += amount;\r\n            round.totalRewardAmount += 0;\r\n            currentTreasuryCollection += amount;\r\n            emit RewardCalculated(0, amount);\r\n            return 0;\r\n        }\r\n    }\r\n\r\n    // Helper routine to process the payment.\r\n    function sendFunds(\r\n        address beneficiary,\r\n        uint256 amount\r\n    ) private {\r\n        if (amount > 0) {\r\n            token.safeTransfer(beneficiary, amount);\r\n                emit Payment(beneficiary, amount);\r\n        } else {\r\n            emit Payment(beneficiary, 0);\r\n        }\r\n    }\r\n\r\n    //If someone accidently sends tokens or native currency to this contract\r\n    function withdrawAllTokens(address _token) external onlyOwner{\r\n        uint256 bal = IERC20(_token).balanceOf(address(this));\r\n        withdrawToken(_token, bal);\r\n    }\r\n    \r\n    function withdrawToken(address _token, uint256 amount) public virtual onlyOwner{\r\n        uint256 bal = IERC20(_token).balanceOf(address(this));\r\n        require(bal >= amount, \"balanace of token in contract too low\");\r\n        IERC20(_token).safeTransfer(owner, amount);\r\n    }\r\n\r\n    function withdrawAllNative() external onlyOwner{\r\n        uint256 bal = address(this).balance;\r\n        withdrawNative(bal);\r\n    } \r\n\r\n    function withdrawNative(uint256 amount) public virtual onlyOwner{\r\n        uint256 bal = address(this).balance;\r\n        require(bal >= amount, \"balanace of native token in contract too low\");\r\n        (bool sent, ) = owner.call{value: amount}(\"\");\r\n        require(sent, \"Failure in native token transfer\");\r\n    }\r\n    \r\n}\r\n                  \r\n",
  "sourcePath": "C:\\Users\\shiva\\OneDrive\\Desktop\\UpDown\\contracts\\UpDown.sol",
  "compiler": {
    "name": "solc",
    "version": "0.8.6+commit.11564f7e.Emscripten.clang"
  },
  "schemaVersion": "3.4.4",
  "updatedAt": "2022-04-14T13:48:09.497Z",
  "networkType": "ethereum",
  "devdoc": {
    "kind": "dev",
    "methods": {
      "paused()": {
        "details": "Returns true if the contract is paused, and false otherwise."
      }
    },
    "version": 1
  },
  "userdoc": {
    "kind": "user",
    "methods": {},
    "version": 1
  }
}